{"abi":[{"type":"constructor","inputs":[],"stateMutability":"nonpayable"},{"type":"function","name":"addCountry","inputs":[{"name":"countryCode","type":"bytes32","internalType":"bytes32"},{"name":"name","type":"string","internalType":"string"},{"name":"priceFeed","type":"address","internalType":"address"}],"outputs":[],"stateMutability":"nonpayable"},{"type":"function","name":"getAllCountries","inputs":[],"outputs":[{"name":"","type":"tuple[]","internalType":"struct ICountryRegistry.Country[]","components":[{"name":"countryCode","type":"bytes32","internalType":"bytes32"},{"name":"name","type":"string","internalType":"string"},{"name":"priceFeed","type":"address","internalType":"address"},{"name":"isActive","type":"bool","internalType":"bool"}]}],"stateMutability":"view"},{"type":"function","name":"getCountry","inputs":[{"name":"countryCode","type":"bytes32","internalType":"bytes32"}],"outputs":[{"name":"","type":"tuple","internalType":"struct ICountryRegistry.Country","components":[{"name":"countryCode","type":"bytes32","internalType":"bytes32"},{"name":"name","type":"string","internalType":"string"},{"name":"priceFeed","type":"address","internalType":"address"},{"name":"isActive","type":"bool","internalType":"bool"}]}],"stateMutability":"view"},{"type":"function","name":"getCountryPrice","inputs":[{"name":"countryCode","type":"bytes32","internalType":"bytes32"}],"outputs":[{"name":"price","type":"uint256","internalType":"uint256"},{"name":"timestamp","type":"uint256","internalType":"uint256"}],"stateMutability":"view"},{"type":"function","name":"isCountryActive","inputs":[{"name":"countryCode","type":"bytes32","internalType":"bytes32"}],"outputs":[{"name":"","type":"bool","internalType":"bool"}],"stateMutability":"view"},{"type":"function","name":"owner","inputs":[],"outputs":[{"name":"","type":"address","internalType":"address"}],"stateMutability":"view"},{"type":"function","name":"removeCountry","inputs":[{"name":"countryCode","type":"bytes32","internalType":"bytes32"}],"outputs":[],"stateMutability":"nonpayable"},{"type":"function","name":"renounceOwnership","inputs":[],"outputs":[],"stateMutability":"nonpayable"},{"type":"function","name":"transferOwnership","inputs":[{"name":"newOwner","type":"address","internalType":"address"}],"outputs":[],"stateMutability":"nonpayable"},{"type":"function","name":"updateCountryPriceFeed","inputs":[{"name":"countryCode","type":"bytes32","internalType":"bytes32"},{"name":"newPriceFeed","type":"address","internalType":"address"}],"outputs":[],"stateMutability":"nonpayable"},{"type":"event","name":"CountryAdded","inputs":[{"name":"countryCode","type":"bytes32","indexed":true,"internalType":"bytes32"},{"name":"name","type":"string","indexed":false,"internalType":"string"},{"name":"priceFeed","type":"address","indexed":false,"internalType":"address"}],"anonymous":false},{"type":"event","name":"CountryRemoved","inputs":[{"name":"countryCode","type":"bytes32","indexed":true,"internalType":"bytes32"}],"anonymous":false},{"type":"event","name":"CountryUpdated","inputs":[{"name":"countryCode","type":"bytes32","indexed":true,"internalType":"bytes32"},{"name":"newPriceFeed","type":"address","indexed":false,"internalType":"address"}],"anonymous":false},{"type":"event","name":"OwnershipTransferred","inputs":[{"name":"previousOwner","type":"address","indexed":true,"internalType":"address"},{"name":"newOwner","type":"address","indexed":true,"internalType":"address"}],"anonymous":false},{"type":"error","name":"OwnableInvalidOwner","inputs":[{"name":"owner","type":"address","internalType":"address"}]},{"type":"error","name":"OwnableUnauthorizedAccount","inputs":[{"name":"account","type":"address","internalType":"address"}]}],"bytecode":{"object":"0x6080604052348015600e575f5ffd5b503380603357604051631e4fbdf760e01b81525f600482015260240160405180910390fd5b603a81603f565b50608e565b5f80546001600160a01b038381166001600160a01b0319831681178455604051919092169283917f8be0079c531659141344cd1fd0a4f28419497f9722a3daafe3b4186f6b6457e09190a35050565b6112008061009b5f395ff3fe608060405234801561000f575f5ffd5b506004361061009b575f3560e01c8063d7ee3d4611610063578063d7ee3d4614610107578063dd23d51d14610143578063ed44b58a14610163578063f2fde38b1461018b578063fafac1791461019e575f5ffd5b80630d4bf50d1461009f5780636a9b6c20146100bd578063715018a6146100d25780637aa123e2146100da5780638da5cb5b146100ed575b5f5ffd5b6100a76101b1565b6040516100b49190610cc4565b60405180910390f35b6100d06100cb366004610d27565b6103bc565b005b6100d0610449565b6100d06100e8366004610d59565b61045c565b5f546040516001600160a01b0390911681526020016100b4565b610133610115366004610d27565b5f90815260016020526040902060020154600160a01b900460ff1690565b60405190151581526020016100b4565b610156610151366004610d27565b6105a3565b6040516100b49190610d83565b610176610171366004610d27565b6106b3565b604080519283526020830191909152016100b4565b6100d0610199366004610d9c565b61091a565b6100d06101ac366004610dc9565b610957565b6002546060905f9067ffffffffffffffff8111156101d1576101d1610db5565b60405190808252806020026020018201604052801561023557816020015b61022260405180608001604052805f8152602001606081526020015f6001600160a01b031681526020015f151581525090565b8152602001906001900390816101ef5790505b5090505f805b6002548110156103b45760015f6002838154811061025b5761025b610e95565b905f5260205f20015481526020019081526020015f2060020160149054906101000a900460ff16156103ac5760015f6002838154811061029d5761029d610e95565b905f5260205f20015481526020019081526020015f206040518060800160405290815f82015481526020016001820180546102d790610ea9565b80601f016020809104026020016040519081016040528092919081815260200182805461030390610ea9565b801561034e5780601f106103255761010080835404028352916020019161034e565b820191905f5260205f20905b81548152906001019060200180831161033157829003601f168201915b5050509183525050600291909101546001600160a01b0381166020830152600160a01b900460ff161515604090910152835184908490811061039257610392610e95565b602002602001018190525081806103a890610ef5565b9250505b60010161023b565b508152919050565b6103c4610bd3565b5f81815260016020526040902060020154600160a01b900460ff166104045760405162461bcd60e51b81526004016103fb90610f0d565b60405180910390fd5b5f81815260016020526040808220600201805460ff60a01b191690555182917f4a8eff8a78c78f7fe9c473931a1e12ef4835bd715a6a62b0a29fdd0f2d79f35c91a250565b610451610bd3565b61045a5f610bff565b565b610464610bd3565b5f82815260016020526040902060020154600160a01b900460ff1661049b5760405162461bcd60e51b81526004016103fb90610f0d565b6001600160a01b0381166104c15760405162461bcd60e51b81526004016103fb90610f54565b5f819050806001600160a01b031663313ce5676040518163ffffffff1660e01b8152600401602060405180830381865afa92505050801561051f575060408051601f3d908101601f1916820190925261051c91810190610f97565b60015b61053b5760405162461bcd60e51b81526004016103fb90610fb7565b505f8381526001602090815260409182902060020180546001600160a01b0319166001600160a01b038616908117909155915191825284917f97238c6d58ee560f01ee88627bd89d461b1074948b8726c4ea2d7772fd8eac22910160405180910390a2505050565b6105d660405180608001604052805f8152602001606081526020015f6001600160a01b031681526020015f151581525090565b5f828152600160208181526040928390208351608081019094528054845291820180549184019161060690610ea9565b80601f016020809104026020016040519081016040528092919081815260200182805461063290610ea9565b801561067d5780601f106106545761010080835404028352916020019161067d565b820191905f5260205f20905b81548152906001019060200180831161066057829003601f168201915b5050509183525050600291909101546001600160a01b0381166020830152600160a01b900460ff16151560409091015292915050565b5f818152600160205260408120600201548190600160a01b900460ff166106ec5760405162461bcd60e51b81526004016103fb90610f0d565b5f83815260016020526040808220600201548151633fabe5a360e21b815291516001600160a01b039091169291829182918291869163feaf968c9160048083019260a09291908290030181865afa158015610749573d5f5f3e3d5ffd5b505050506040513d601f19601f8201168201806040525081019061076d919061101c565b9450945050935093505f83136107c55760405162461bcd60e51b815260206004820152601e60248201527f436f756e74727952656769737472793a20496e76616c6964207072696365000060448201526064016103fb565b5f82116108245760405162461bcd60e51b815260206004820152602760248201527f436f756e74727952656769737472793a2050726963652066656564206e6f74206044820152661d5c19185d195960ca1b60648201526084016103fb565b8369ffffffffffffffffffff168169ffffffffffffffffffff1610156108965760405162461bcd60e51b815260206004820152602160248201527f436f756e74727952656769737472793a20496e636f6d706c65746520726f756e6044820152601960fa1b60648201526084016103fb565b610e10806108a4844261106a565b11156108fc5760405162461bcd60e51b815260206004820152602160248201527f436f756e74727952656769737472793a2050726963652066656564207374616c6044820152606560f81b60648201526084016103fb565b61090b846402540be400611083565b99929850919650505050505050565b610922610bd3565b6001600160a01b03811661094b57604051631e4fbdf760e01b81525f60048201526024016103fb565b61095481610bff565b50565b61095f610bd3565b826109ba5760405162461bcd60e51b815260206004820152602560248201527f436f756e74727952656769737472793a20496e76616c696420636f756e74727960448201526420636f646560d81b60648201526084016103fb565b6001600160a01b0381166109e05760405162461bcd60e51b81526004016103fb90610f54565b5f83815260016020526040902060020154600160a01b900460ff1615610a585760405162461bcd60e51b815260206004820152602760248201527f436f756e74727952656769737472793a20436f756e74727920616c72656164796044820152662065786973747360c81b60648201526084016103fb565b5f819050806001600160a01b031663313ce5676040518163ffffffff1660e01b8152600401602060405180830381865afa925050508015610ab6575060408051601f3d908101601f19168201909252610ab391810190610f97565b60015b610ad25760405162461bcd60e51b81526004016103fb90610fb7565b506040805160808101825285815260208082018681526001600160a01b038616838501526001606084018190525f89815292819052939091208251815590519192909190820190610b2390826110e6565b50604082810151600292830180546060909501511515600160a01b026001600160a81b03199095166001600160a01b03909216919091179390931790925580546001810182555f919091527f405787fa12a823e0f2b7631cc41b3ba8828b3321ca811111fa75cd3aa3bb5ace018590555184907fd689451eb8038fb7618bb389e24ce5733f0c5d7459701afd91562302a277ff1b90610bc590869086906111a1565b60405180910390a250505050565b5f546001600160a01b0316331461045a5760405163118cdaa760e01b81523360048201526024016103fb565b5f80546001600160a01b038381166001600160a01b0319831681178455604051919092169283917f8be0079c531659141344cd1fd0a4f28419497f9722a3daafe3b4186f6b6457e09190a35050565b5f81518084528060208401602086015e5f602082860101526020601f19601f83011685010191505092915050565b805182525f602082015160806020850152610c9a6080850182610c4e565b6040848101516001600160a01b031690860152606093840151151593909401929092525090919050565b5f602082016020835280845180835260408501915060408160051b8601019250602086015f5b82811015610d1b57603f19878603018452610d06858351610c7c565b94506020938401939190910190600101610cea565b50929695505050505050565b5f60208284031215610d37575f5ffd5b5035919050565b80356001600160a01b0381168114610d54575f5ffd5b919050565b5f5f60408385031215610d6a575f5ffd5b82359150610d7a60208401610d3e565b90509250929050565b602081525f610d956020830184610c7c565b9392505050565b5f60208284031215610dac575f5ffd5b610d9582610d3e565b634e487b7160e01b5f52604160045260245ffd5b5f5f5f60608486031215610ddb575f5ffd5b83359250602084013567ffffffffffffffff811115610df8575f5ffd5b8401601f81018613610e08575f5ffd5b803567ffffffffffffffff811115610e2257610e22610db5565b604051601f8201601f19908116603f0116810167ffffffffffffffff81118282101715610e5157610e51610db5565b604052818152828201602001881015610e68575f5ffd5b816020840160208301375f60208383010152809450505050610e8c60408501610d3e565b90509250925092565b634e487b7160e01b5f52603260045260245ffd5b600181811c90821680610ebd57607f821691505b602082108103610edb57634e487b7160e01b5f52602260045260245ffd5b50919050565b634e487b7160e01b5f52601160045260245ffd5b5f60018201610f0657610f06610ee1565b5060010190565b60208082526027908201527f436f756e74727952656769737472793a20436f756e74727920646f6573206e6f6040820152661d08195e1a5cdd60ca1b606082015260800190565b60208082526023908201527f436f756e74727952656769737472793a20496e76616c6964207072696365206660408201526219595960ea1b606082015260800190565b5f60208284031215610fa7575f5ffd5b815160ff81168114610d95575f5ffd5b6020808252602c908201527f436f756e74727952656769737472793a20496e76616c6964207072696365206660408201526b1959590818dbdb9d1c9858dd60a21b606082015260800190565b805169ffffffffffffffffffff81168114610d54575f5ffd5b5f5f5f5f5f60a08688031215611030575f5ffd5b61103986611003565b6020870151604088015160608901519297509095509350915061105e60808701611003565b90509295509295909350565b8181038181111561107d5761107d610ee1565b92915050565b808202811582820484141761107d5761107d610ee1565b601f8211156110e157805f5260205f20601f840160051c810160208510156110bf5750805b601f840160051c820191505b818110156110de575f81556001016110cb565b50505b505050565b815167ffffffffffffffff81111561110057611100610db5565b6111148161110e8454610ea9565b8461109a565b6020601f821160018114611146575f831561112f5750848201515b5f19600385901b1c1916600184901b1784556110de565b5f84815260208120601f198516915b828110156111755787850151825560209485019460019092019101611155565b508482101561119257868401515f19600387901b60f8161c191681555b50505050600190811b01905550565b604081525f6111b36040830185610c4e565b905060018060a01b0383166020830152939250505056fea2646970667358221220f00dab1fdc312451b9804450c6627bc985d15f500ee12f2456ae4897710935cd64736f6c634300081e0033","linkReferences":{}},"methodIdentifiers":{"addCountry(bytes32,string,address)":"fafac179","getAllCountries()":"0d4bf50d","getCountry(bytes32)":"dd23d51d","getCountryPrice(bytes32)":"ed44b58a","isCountryActive(bytes32)":"d7ee3d46","owner()":"8da5cb5b","removeCountry(bytes32)":"6a9b6c20","renounceOwnership()":"715018a6","transferOwnership(address)":"f2fde38b","updateCountryPriceFeed(bytes32,address)":"7aa123e2"},"id":28}