{"abi":[{"type":"constructor","inputs":[{"name":"_collateralToken","type":"address","internalType":"address"},{"name":"_countryRegistry","type":"address","internalType":"address"},{"name":"_liquidityPool","type":"address","internalType":"address"}],"stateMutability":"nonpayable"},{"type":"function","name":"LEVERAGE","inputs":[],"outputs":[{"name":"","type":"uint256","internalType":"uint256"}],"stateMutability":"view"},{"type":"function","name":"LIQUIDATOR_BONUS_BPS","inputs":[],"outputs":[{"name":"","type":"uint256","internalType":"uint256"}],"stateMutability":"view"},{"type":"function","name":"MAX_POSITIONS_PER_USER","inputs":[],"outputs":[{"name":"","type":"uint256","internalType":"uint256"}],"stateMutability":"view"},{"type":"function","name":"MAX_POSITION_SIZE","inputs":[],"outputs":[{"name":"","type":"uint256","internalType":"uint256"}],"stateMutability":"view"},{"type":"function","name":"MIN_POSITION_SIZE","inputs":[],"outputs":[{"name":"","type":"uint256","internalType":"uint256"}],"stateMutability":"view"},{"type":"function","name":"canLiquidate","inputs":[{"name":"user","type":"address","internalType":"address"},{"name":"positionId","type":"uint256","internalType":"uint256"}],"outputs":[{"name":"","type":"bool","internalType":"bool"}],"stateMutability":"view"},{"type":"function","name":"closePosition","inputs":[{"name":"positionId","type":"uint256","internalType":"uint256"}],"outputs":[],"stateMutability":"nonpayable"},{"type":"function","name":"closePositionPartial","inputs":[{"name":"positionId","type":"uint256","internalType":"uint256"},{"name":"closeRatioBps","type":"uint256","internalType":"uint256"}],"outputs":[],"stateMutability":"nonpayable"},{"type":"function","name":"collateralBalances","inputs":[{"name":"","type":"address","internalType":"address"}],"outputs":[{"name":"","type":"uint256","internalType":"uint256"}],"stateMutability":"view"},{"type":"function","name":"collateralToken","inputs":[],"outputs":[{"name":"","type":"address","internalType":"contract IERC20"}],"stateMutability":"view"},{"type":"function","name":"countryRegistry","inputs":[],"outputs":[{"name":"","type":"address","internalType":"contract CountryRegistry"}],"stateMutability":"view"},{"type":"function","name":"deposit","inputs":[{"name":"amount","type":"uint256","internalType":"uint256"}],"outputs":[],"stateMutability":"nonpayable"},{"type":"function","name":"getCollateralBalance","inputs":[{"name":"user","type":"address","internalType":"address"}],"outputs":[{"name":"","type":"uint256","internalType":"uint256"}],"stateMutability":"view"},{"type":"function","name":"getCurrentFundingRate","inputs":[],"outputs":[{"name":"fundingRate","type":"int256","internalType":"int256"}],"stateMutability":"view"},{"type":"function","name":"getPosition","inputs":[{"name":"user","type":"address","internalType":"address"},{"name":"positionId","type":"uint256","internalType":"uint256"}],"outputs":[{"name":"","type":"tuple","internalType":"struct ICountryTrading.Position","components":[{"name":"countryCode","type":"bytes32","internalType":"bytes32"},{"name":"isLong","type":"bool","internalType":"bool"},{"name":"collateralAmount","type":"uint256","internalType":"uint256"},{"name":"positionSize","type":"uint256","internalType":"uint256"},{"name":"entryPrice","type":"uint256","internalType":"uint256"},{"name":"entryTimestamp","type":"uint256","internalType":"uint256"},{"name":"lastFundingTimestamp","type":"uint256","internalType":"uint256"}]}],"stateMutability":"view"},{"type":"function","name":"getPositionPnL","inputs":[{"name":"user","type":"address","internalType":"address"},{"name":"positionId","type":"uint256","internalType":"uint256"}],"outputs":[{"name":"pnl","type":"int256","internalType":"int256"},{"name":"currentPrice","type":"uint256","internalType":"uint256"}],"stateMutability":"view"},{"type":"function","name":"getPositionValue","inputs":[{"name":"user","type":"address","internalType":"address"},{"name":"positionId","type":"uint256","internalType":"uint256"}],"outputs":[{"name":"","type":"uint256","internalType":"uint256"}],"stateMutability":"view"},{"type":"function","name":"getProtocolMetrics","inputs":[],"outputs":[{"name":"totalCollateral_","type":"uint256","internalType":"uint256"},{"name":"protocolFees_","type":"uint256","internalType":"uint256"}],"stateMutability":"view"},{"type":"function","name":"getUserPositionCount","inputs":[{"name":"user","type":"address","internalType":"address"}],"outputs":[{"name":"count","type":"uint256","internalType":"uint256"}],"stateMutability":"view"},{"type":"function","name":"getUserPositions","inputs":[{"name":"user","type":"address","internalType":"address"}],"outputs":[{"name":"","type":"uint256[]","internalType":"uint256[]"}],"stateMutability":"view"},{"type":"function","name":"increaseCollateral","inputs":[{"name":"positionId","type":"uint256","internalType":"uint256"},{"name":"amount","type":"uint256","internalType":"uint256"}],"outputs":[],"stateMutability":"nonpayable"},{"type":"function","name":"liquidatePosition","inputs":[{"name":"user","type":"address","internalType":"address"},{"name":"positionId","type":"uint256","internalType":"uint256"}],"outputs":[],"stateMutability":"nonpayable"},{"type":"function","name":"liquidationThresholdBps","inputs":[],"outputs":[{"name":"","type":"uint256","internalType":"uint256"}],"stateMutability":"view"},{"type":"function","name":"liquidityPool","inputs":[],"outputs":[{"name":"","type":"address","internalType":"contract LiquidityPool"}],"stateMutability":"view"},{"type":"function","name":"nextPositionId","inputs":[{"name":"","type":"address","internalType":"address"}],"outputs":[{"name":"","type":"uint256","internalType":"uint256"}],"stateMutability":"view"},{"type":"function","name":"openLongPosition","inputs":[{"name":"countryCode","type":"bytes32","internalType":"bytes32"},{"name":"collateralAmount","type":"uint256","internalType":"uint256"}],"outputs":[{"name":"positionId","type":"uint256","internalType":"uint256"}],"stateMutability":"nonpayable"},{"type":"function","name":"openShortPosition","inputs":[{"name":"countryCode","type":"bytes32","internalType":"bytes32"},{"name":"collateralAmount","type":"uint256","internalType":"uint256"}],"outputs":[{"name":"positionId","type":"uint256","internalType":"uint256"}],"stateMutability":"nonpayable"},{"type":"function","name":"owner","inputs":[],"outputs":[{"name":"","type":"address","internalType":"address"}],"stateMutability":"view"},{"type":"function","name":"pause","inputs":[],"outputs":[],"stateMutability":"nonpayable"},{"type":"function","name":"paused","inputs":[],"outputs":[{"name":"","type":"bool","internalType":"bool"}],"stateMutability":"view"},{"type":"function","name":"positions","inputs":[{"name":"","type":"address","internalType":"address"},{"name":"","type":"uint256","internalType":"uint256"}],"outputs":[{"name":"countryCode","type":"bytes32","internalType":"bytes32"},{"name":"isLong","type":"bool","internalType":"bool"},{"name":"collateralAmount","type":"uint256","internalType":"uint256"},{"name":"positionSize","type":"uint256","internalType":"uint256"},{"name":"entryPrice","type":"uint256","internalType":"uint256"},{"name":"entryTimestamp","type":"uint256","internalType":"uint256"},{"name":"lastFundingTimestamp","type":"uint256","internalType":"uint256"}],"stateMutability":"view"},{"type":"function","name":"protocolFees","inputs":[],"outputs":[{"name":"","type":"uint256","internalType":"uint256"}],"stateMutability":"view"},{"type":"function","name":"renounceOwnership","inputs":[],"outputs":[],"stateMutability":"nonpayable"},{"type":"function","name":"setLiquidationThreshold","inputs":[{"name":"_liquidationThresholdBps","type":"uint256","internalType":"uint256"}],"outputs":[],"stateMutability":"nonpayable"},{"type":"function","name":"setTradingFee","inputs":[{"name":"_tradingFeeBps","type":"uint256","internalType":"uint256"}],"outputs":[],"stateMutability":"nonpayable"},{"type":"function","name":"totalCollateral","inputs":[],"outputs":[{"name":"","type":"uint256","internalType":"uint256"}],"stateMutability":"view"},{"type":"function","name":"tradingFeeBps","inputs":[],"outputs":[{"name":"","type":"uint256","internalType":"uint256"}],"stateMutability":"view"},{"type":"function","name":"transferOwnership","inputs":[{"name":"newOwner","type":"address","internalType":"address"}],"outputs":[],"stateMutability":"nonpayable"},{"type":"function","name":"unpause","inputs":[],"outputs":[],"stateMutability":"nonpayable"},{"type":"function","name":"userPositionIds","inputs":[{"name":"","type":"address","internalType":"address"},{"name":"","type":"uint256","internalType":"uint256"}],"outputs":[{"name":"","type":"uint256","internalType":"uint256"}],"stateMutability":"view"},{"type":"function","name":"withdraw","inputs":[{"name":"amount","type":"uint256","internalType":"uint256"}],"outputs":[],"stateMutability":"nonpayable"},{"type":"function","name":"withdrawProtocolFees","inputs":[{"name":"amount","type":"uint256","internalType":"uint256"}],"outputs":[],"stateMutability":"nonpayable"},{"type":"event","name":"CollateralIncreased","inputs":[{"name":"user","type":"address","indexed":true,"internalType":"address"},{"name":"positionId","type":"uint256","indexed":false,"internalType":"uint256"},{"name":"amount","type":"uint256","indexed":false,"internalType":"uint256"},{"name":"newCollateralAmount","type":"uint256","indexed":false,"internalType":"uint256"}],"anonymous":false},{"type":"event","name":"CountryAdded","inputs":[{"name":"countryCode","type":"bytes32","indexed":true,"internalType":"bytes32"},{"name":"priceFeed","type":"address","indexed":false,"internalType":"address"}],"anonymous":false},{"type":"event","name":"CountryRemoved","inputs":[{"name":"countryCode","type":"bytes32","indexed":true,"internalType":"bytes32"}],"anonymous":false},{"type":"event","name":"Deposit","inputs":[{"name":"user","type":"address","indexed":true,"internalType":"address"},{"name":"amount","type":"uint256","indexed":false,"internalType":"uint256"}],"anonymous":false},{"type":"event","name":"LiquidationThresholdUpdated","inputs":[{"name":"oldThreshold","type":"uint256","indexed":false,"internalType":"uint256"},{"name":"newThreshold","type":"uint256","indexed":false,"internalType":"uint256"}],"anonymous":false},{"type":"event","name":"OwnershipTransferred","inputs":[{"name":"previousOwner","type":"address","indexed":true,"internalType":"address"},{"name":"newOwner","type":"address","indexed":true,"internalType":"address"}],"anonymous":false},{"type":"event","name":"Paused","inputs":[{"name":"account","type":"address","indexed":false,"internalType":"address"}],"anonymous":false},{"type":"event","name":"PositionClosed","inputs":[{"name":"user","type":"address","indexed":true,"internalType":"address"},{"name":"countryCode","type":"bytes32","indexed":true,"internalType":"bytes32"},{"name":"positionId","type":"uint256","indexed":false,"internalType":"uint256"},{"name":"isLong","type":"bool","indexed":false,"internalType":"bool"},{"name":"collateralAmount","type":"uint256","indexed":false,"internalType":"uint256"},{"name":"positionSize","type":"uint256","indexed":false,"internalType":"uint256"},{"name":"entryPrice","type":"uint256","indexed":false,"internalType":"uint256"},{"name":"exitPrice","type":"uint256","indexed":false,"internalType":"uint256"},{"name":"pnl","type":"int256","indexed":false,"internalType":"int256"}],"anonymous":false},{"type":"event","name":"PositionLiquidated","inputs":[{"name":"user","type":"address","indexed":true,"internalType":"address"},{"name":"countryCode","type":"bytes32","indexed":true,"internalType":"bytes32"},{"name":"positionId","type":"uint256","indexed":false,"internalType":"uint256"},{"name":"liquidatedAmount","type":"uint256","indexed":false,"internalType":"uint256"}],"anonymous":false},{"type":"event","name":"PositionOpened","inputs":[{"name":"user","type":"address","indexed":true,"internalType":"address"},{"name":"countryCode","type":"bytes32","indexed":true,"internalType":"bytes32"},{"name":"positionId","type":"uint256","indexed":false,"internalType":"uint256"},{"name":"isLong","type":"bool","indexed":false,"internalType":"bool"},{"name":"collateralAmount","type":"uint256","indexed":false,"internalType":"uint256"},{"name":"positionSize","type":"uint256","indexed":false,"internalType":"uint256"},{"name":"entryPrice","type":"uint256","indexed":false,"internalType":"uint256"}],"anonymous":false},{"type":"event","name":"PositionPartiallyClosed","inputs":[{"name":"user","type":"address","indexed":true,"internalType":"address"},{"name":"countryCode","type":"bytes32","indexed":true,"internalType":"bytes32"},{"name":"positionId","type":"uint256","indexed":false,"internalType":"uint256"},{"name":"closeRatioBps","type":"uint256","indexed":false,"internalType":"uint256"},{"name":"realizedPnl","type":"uint256","indexed":false,"internalType":"uint256"},{"name":"remainingCollateral","type":"uint256","indexed":false,"internalType":"uint256"},{"name":"remainingSize","type":"uint256","indexed":false,"internalType":"uint256"}],"anonymous":false},{"type":"event","name":"ProtocolFeesCollected","inputs":[{"name":"amount","type":"uint256","indexed":false,"internalType":"uint256"},{"name":"source","type":"string","indexed":false,"internalType":"string"}],"anonymous":false},{"type":"event","name":"ProtocolFeesWithdrawn","inputs":[{"name":"owner","type":"address","indexed":true,"internalType":"address"},{"name":"amount","type":"uint256","indexed":false,"internalType":"uint256"}],"anonymous":false},{"type":"event","name":"TradingFeeUpdated","inputs":[{"name":"oldFee","type":"uint256","indexed":false,"internalType":"uint256"},{"name":"newFee","type":"uint256","indexed":false,"internalType":"uint256"}],"anonymous":false},{"type":"event","name":"Unpaused","inputs":[{"name":"account","type":"address","indexed":false,"internalType":"address"}],"anonymous":false},{"type":"event","name":"Withdraw","inputs":[{"name":"user","type":"address","indexed":true,"internalType":"address"},{"name":"amount","type":"uint256","indexed":false,"internalType":"uint256"}],"anonymous":false},{"type":"error","name":"EnforcedPause","inputs":[]},{"type":"error","name":"ExpectedPause","inputs":[]},{"type":"error","name":"OwnableInvalidOwner","inputs":[{"name":"owner","type":"address","internalType":"address"}]},{"type":"error","name":"OwnableUnauthorizedAccount","inputs":[{"name":"account","type":"address","internalType":"address"}]},{"type":"error","name":"ReentrancyGuardReentrantCall","inputs":[]},{"type":"error","name":"SafeERC20FailedOperation","inputs":[{"name":"token","type":"address","internalType":"address"}]}],"bytecode":{"object":"0x60e0604052600a60015561213460025534801561001a575f5ffd5b506040516146b73803806146b783398101604081905261003991610247565b60017f9b779b17422d0df92223018b32b4d1fa46e071723d6817e2486d003becc55f0055338061008357604051631e4fbdf760e01b81525f60048201526024015b60405180910390fd5b61008c816101dd565b506001600160a01b0383166100f45760405162461bcd60e51b815260206004820152602860248201527f436f756e74727954726164696e673a20496e76616c696420636f6c6c6174657260448201526730b6103a37b5b2b760c11b606482015260840161007a565b6001600160a01b03821661015b5760405162461bcd60e51b815260206004820152602860248201527f436f756e74727954726164696e673a20496e76616c696420636f756e74727920604482015267726567697374727960c01b606482015260840161007a565b6001600160a01b0381166101c05760405162461bcd60e51b815260206004820152602660248201527f436f756e74727954726164696e673a20496e76616c6964206c697175696469746044820152651e481c1bdbdb60d21b606482015260840161007a565b6001600160a01b0392831660805290821660a0521660c052610287565b5f80546001600160a01b038381166001600160a01b0319831681178455604051919092169283917f8be0079c531659141344cd1fd0a4f28419497f9722a3daafe3b4186f6b6457e09190a35050565b80516001600160a01b0381168114610242575f5ffd5b919050565b5f5f5f60608486031215610259575f5ffd5b6102628461022c565b92506102706020850161022c565b915061027e6040850161022c565b90509250925092565b60805160a05160c05161426961044e5f395f818161049001528181610a5f01528181610a9a01528181610b3601528181610c0001528181610c3b01528181610cd801528181610d1301528181610db201528181610ded0152818161147f0152818161199701528181611b3001528181611b6b01528181611efa01528181611f3501528181611fd10152818161205b0152818161211e015281816121590152818161224e01528181612289015281816123240152818161235f015281816123f101528181612bac01528181612cfa01528181612d3501528181612e1801528181612e5301528181612ef601528181613a3b01528181613a760152613b0801525f81816102a5015281816107d0015281816110b8015281816118ad01528181611d220152818161271101528181612a8b015281816131d60152818161377501526138c101525f818161053f01528181610a3d01528181610bde01528181610cb601528181610d90015281816112150152818161133d0152818161167b01528181611ad401528181611b0e01528181611ed8015281816120fc0152818161222c01528181612302015281816127f101528181612cd801528181612df60152613a1901526142695ff3fe608060405234801561000f575f5ffd5b5060043610610255575f3560e01c8063715018a611610140578063b2016bd4116100bf578063d0b0c81611610084578063d0b0c81614610625578063d834deb514610638578063e486473114610641578063eb1d13b01461064a578063f2fde38b14610666578063fcb6972414610679575f5ffd5b8063b2016bd41461053a578063b39ff73614610561578063b6b55f2514610574578063bc6f897614610587578063c1be66771461059a575f5ffd5b80638da5cb5b116101055780638da5cb5b146104e8578063924cca9a146104f8578063a126d60114610501578063ab40e1cf14610514578063b0d54bcf14610527575f5ffd5b8063715018a6146104b257806376f89965146104ba5780637b6eb9b6146104cd5780638456cb59146104e05780638d01f0ba146103a5575f5ffd5b806331e8a7ef116101d75780634ac8eb5f1161019c5780634ac8eb5f1461042e5780634f4491381461043757806354f0cb0d1461044a5780635c975abb1461045d5780635ec1215f1461047a578063665a11ca1461048b575f5ffd5b806331e8a7ef1461037d578063368dbba8146103a55780633adbb5af146103b45780633f4ba83a1461041e5780634469fc9d14610426575f5ffd5b806329bc969d1161021d57806329bc969d146103105780632a6bc2dd1461032f5780632c51060f1461034f5780632e1a7d4d146103625780632fcb305814610375575f5ffd5b8063036ae35414610259578063051165751461028b5780631ad393b8146102a05780631ad8b03b146102df5780632703ee85146102e8575b5f5ffd5b610278610267366004613ef5565b60066020525f908152604090205481565b6040519081526020015b60405180910390f35b61029e610299366004613f0e565b61068c565b005b6102c77f000000000000000000000000000000000000000000000000000000000000000081565b6040516001600160a01b039091168152602001610282565b61027860085481565b6102786102f6366004613ef5565b6001600160a01b03165f9081526003602052604090205490565b61027861031e366004613ef5565b60036020525f908152604090205481565b61034261033d366004613ef5565b610fa2565b6040516102829190613f2e565b61027861035d366004613f70565b61100b565b61029e610370366004613f98565b611165565b610278606481565b61027861038b366004613ef5565b6001600160a01b03165f9081526005602052604090205490565b610278670de0b6b3a764000081565b6103c76103c2366004613f70565b6113b3565b60405161028291905f60e0820190508251825260208301511515602083015260408301516040830152606083015160608301526080830151608083015260a083015160a083015260c083015160c083015292915050565b61029e611468565b61027861147a565b61027860075481565b61029e610445366004613f98565b611513565b61029e610458366004613f0e565b611605565b5f54600160a01b900460ff165b6040519015158152602001610282565b61027869d3c21bcecceda100000081565b6102c77f000000000000000000000000000000000000000000000000000000000000000081565b61029e611756565b61029e6104c8366004613f70565b611767565b6102786104db366004613f70565b611c78565b61029e611ca3565b5f546001600160a01b03166102c7565b61027860015481565b61029e61050f366004613f98565b611cb3565b610278610522366004613f0e565b6125a2565b61029e610535366004613f98565b6125d6565b6102c77f000000000000000000000000000000000000000000000000000000000000000081565b61046a61056f366004613f70565b612671565b61029e610582366004613f98565b6127b5565b610278610595366004613f0e565b612886565b6105f06105a8366004613f70565b600460208181525f938452604080852090915291835291208054600182015460028301546003840154948401546005850154600690950154939560ff90931694919390919087565b604080519788529515156020880152948601939093526060850191909152608084015260a083015260c082015260e001610282565b61029e610633366004613f98565b6128a3565b6102786101f481565b61027860025481565b6007546008545b60408051928352602083019190915201610282565b61029e610674366004613ef5565b6129a5565b610651610687366004613f70565b6129df565b610694612b22565b61069c612b3d565b5f81116106fa5760405162461bcd60e51b815260206004820152602160248201527f436f756e74727954726164696e673a20526174696f206d757374206265203e206044820152600360fc1b60648201526084015b60405180910390fd5b61271081111561075a5760405162461bcd60e51b815260206004820152602560248201527f436f756e74727954726164696e673a20526174696f206d757374206265203c3d604482015264203130302560d81b60648201526084016106f1565b80612710036107715761076c82611cb3565b610f88565b335f908152600460208181526040808420868552909152909120908101546107ab5760405162461bcd60e51b81526004016106f190613faf565b6107b53384612b67565b80546040516376a25ac560e11b81525f916001600160a01b037f0000000000000000000000000000000000000000000000000000000000000000169163ed44b58a916108079160040190815260200190565b6040805180830381865afa158015610821573d5f5f3e3d5ffd5b505050506040513d601f19601f820116820180604052508101906108459190613ff6565b506001830154600384015460048501549293505f926108699260ff16919085612f65565b90505f61271085856002015461087f919061402c565b6108899190614057565b90505f61271086866003015461089f919061402c565b6108a99190614057565b90505f6127106108b9888661406a565b6108c39190614099565b9050670de0b6b3a76400008287600301546108de91906140c5565b10156109415760405162461bcd60e51b815260206004820152602c60248201527f436f756e74727954726164696e673a2052656d61696e696e6720706f7369746960448201526b1bdb881d1bdbc81cdb585b1b60a21b60648201526084016106f1565b5f61094c8483613008565b90505f61095b82600154613050565b90505f5f8412610ba057835f61097182896140d8565b905080841115610986578093505f9250610993565b61099084826140c5565b92505b335f90815260036020526040812080548a92906109b19084906140d8565b925050819055508760075f8282546109c991906140d8565b909155505f90508885116109dd57846109df565b885b90505f6109ec82876140c5565b90508115610afa57335f9081526003602052604081208054849290610a129084906140c5565b925050819055508160075f828254610a2a91906140c5565b90915550610a8490506001600160a01b037f0000000000000000000000000000000000000000000000000000000000000000167f00000000000000000000000000000000000000000000000000000000000000008461306f565b604051634d0dd0e160e01b8152600481018390527f00000000000000000000000000000000000000000000000000000000000000006001600160a01b031690634d0dd0e1906024015f604051808303815f87803b158015610ae3575f5ffd5b505af1158015610af5573d5f5f3e3d5ffd5b505050505b5f818511610b08575f610b12565b610b1282866140c5565b90508015610b9657604051634b12d9e960e11b8152336004820152602481018290527f00000000000000000000000000000000000000000000000000000000000000006001600160a01b031690639625b3d2906044015f604051808303815f87803b158015610b7f575f5ffd5b505af1158015610b91573d5f5f3e3d5ffd5b505050505b5050505050610e8d565b5f610baa856140eb565b90505f878211610bba5781610bbc565b875b90505f610bc9828a6140c5565b90508115610c9b57610c256001600160a01b037f0000000000000000000000000000000000000000000000000000000000000000167f00000000000000000000000000000000000000000000000000000000000000008461306f565b604051634b5f174d60e01b8152600481018390527f00000000000000000000000000000000000000000000000000000000000000006001600160a01b031690634b5f174d906024015f604051808303815f87803b158015610c84575f5ffd5b505af1158015610c96573d5f5f3e3d5ffd5b505050505b80851115610d775793505f925083610cfd6001600160a01b037f0000000000000000000000000000000000000000000000000000000000000000167f00000000000000000000000000000000000000000000000000000000000000008361306f565b604051634d0dd0e160e01b8152600481018290527f00000000000000000000000000000000000000000000000000000000000000006001600160a01b031690634d0dd0e1906024015f604051808303815f87803b158015610d5c575f5ffd5b505af1158015610d6e573d5f5f3e3d5ffd5b50505050610e89565b610d8185826140c5565b9350610dd76001600160a01b037f0000000000000000000000000000000000000000000000000000000000000000167f00000000000000000000000000000000000000000000000000000000000000008761306f565b604051634d0dd0e160e01b8152600481018690527f00000000000000000000000000000000000000000000000000000000000000006001600160a01b031690634d0dd0e1906024015f604051808303815f87803b158015610e36575f5ffd5b505af1158015610e48573d5f5f3e3d5ffd5b5050335f9081526003602052604081208054889450909250610e6b9084906140d8565b925050819055508360075f828254610e8391906140d8565b90915550505b5050505b8160085f828254610e9e91906140d8565b9250508190555085896002015f828254610eb891906140c5565b9250508190555084896003015f828254610ed291906140c5565b9091555050885460028a015460038b0154604080518f8152602081018f90529081018590526060810192909252608082015233907f2a001085f0aa35bc33bea4e436b157e925d362b5ddca3761042c48775df54f109060a00160405180910390a35f5160206141f45f395f51905f5282604051610f76918152604060208201819052600d908201526c18db1bdcd94b5c185c9d1a585b609a1b606082015260800190565b60405180910390a15050505050505050505b610f9e60015f5160206142145f395f51905f5255565b5050565b6001600160a01b0381165f90815260056020908152604091829020805483518184028101840190945280845260609392830182828015610fff57602002820191905f5260205f20905b815481526020019060010190808311610feb575b50505050509050919050565b6001600160a01b0382165f9081526004602081815260408084208585528252808420815160e08101835281548152600182015460ff16151593810193909352600281015491830191909152600381015460608301529182015460808201819052600583015460a083015260069092015460c08201529061109d5760405162461bcd60e51b81526004016106f190613faf565b80516040516376a25ac560e11b81525f916001600160a01b037f0000000000000000000000000000000000000000000000000000000000000000169163ed44b58a916110ef9160040190815260200190565b6040805180830381865afa158015611109573d5f5f3e3d5ffd5b505050506040513d601f19601f8201168201806040525081019061112d9190613ff6565b5090505f61114983602001518460600151856080015185612f65565b9050611159836040015182613008565b93505050505b92915050565b61116d612b22565b611175612b3d565b5f81116111945760405162461bcd60e51b81526004016106f190614105565b335f908152600360205260409020548111156111fe5760405162461bcd60e51b8152602060048201526024808201527f436f756e74727954726164696e673a20496e73756666696369656e742062616c604482015263616e636560e01b60648201526084016106f1565b6040516370a0823160e01b815230600482015281907f00000000000000000000000000000000000000000000000000000000000000006001600160a01b0316906370a0823190602401602060405180830381865afa158015611262573d5f5f3e3d5ffd5b505050506040513d601f19601f820116820180604052508101906112869190614152565b10156112ea5760405162461bcd60e51b815260206004820152602d60248201527f436f756e74727954726164696e673a20496e73756666696369656e7420636f6e60448201526c74726163742062616c616e636560981b60648201526084016106f1565b6112f433826130a9565b335f90815260036020526040812080548392906113129084906140c5565b925050819055508060075f82825461132a91906140c5565b9091555061136490506001600160a01b037f000000000000000000000000000000000000000000000000000000000000000016338361306f565b60405181815233907f884edad9ce6fa2440d8a54cc123490eb96d2768479d49ff9c7366125a9424364906020015b60405180910390a26113b060015f5160206142145f395f51905f5255565b50565b6113ee6040518060e001604052805f81526020015f151581526020015f81526020015f81526020015f81526020015f81526020015f81525090565b506001600160a01b03919091165f90815260046020818152604080842094845293815291839020835160e08101855281548152600182015460ff16151593810193909352600281015493830193909352600383015460608301528201546080820152600582015460a082015260069091015460c082015290565b611470613347565b611478613373565b565b5f5f5f7f00000000000000000000000000000000000000000000000000000000000000006001600160a01b0316631866509f6040518163ffffffff1660e01b8152600401606060405180830381865afa1580156114d9573d5f5f3e3d5ffd5b505050506040513d601f19601f820116820180604052508101906114fd9190614169565b925092505061150c82826133c7565b9250505090565b61151b613347565b6008548111156115805760405162461bcd60e51b815260206004820152602a60248201527f436f756e74727954726164696e673a20496e73756666696369656e742070726f604482015269746f636f6c206665657360b01b60648201526084016106f1565b5f811161159f5760405162461bcd60e51b81526004016106f190614105565b8060085f8282546115b091906140c5565b90915550505f546001600160a01b03166001600160a01b03167fa087657e3d85162090ffd700fbfdf5070d816f63aa5da00063f6ffd369c8a6db826040516115fa91815260200190565b60405180910390a250565b61160d612b22565b611615612b3d565b5f81116116345760405162461bcd60e51b81526004016106f190614105565b335f9081526004602081815260408084208685529091529091209081015461166e5760405162461bcd60e51b81526004016106f190613faf565b6116a36001600160a01b037f0000000000000000000000000000000000000000000000000000000000000000163330856134a8565b81816002015f8282546116b691906140d8565b9091555050335f90815260036020526040812080548492906116d99084906140d8565b925050819055508160075f8282546116f191906140d8565b9091555050600281015460408051858152602081018590529081019190915233907f2711126cdd671ba05c909b0796db72c6658156f9a70556b66f0d588d0638f7c69060600160405180910390a250610f9e60015f5160206142145f395f51905f5255565b61175e613347565b6114785f6134de565b61176f612b22565b611777612b3d565b6001600160a01b0382166117d95760405162461bcd60e51b8152602060048201526024808201527f436f756e74727954726164696e673a20496e76616c69642075736572206164646044820152637265737360e01b60648201526084016106f1565b6117e38282612671565b6118455760405162461bcd60e51b815260206004820152602d60248201527f436f756e74727954726164696e673a20506f736974696f6e2063616e6e6f742060448201526c1899481b1a5c5d5a59185d1959609a1b60648201526084016106f1565b6001600160a01b0382165f908152600460208181526040808420858552909152909120908101546118885760405162461bcd60e51b81526004016106f190613faf565b6118928383612b67565b80546040516376a25ac560e11b81525f916001600160a01b037f0000000000000000000000000000000000000000000000000000000000000000169163ed44b58a916118e49160040190815260200190565b6040805180830381865afa1580156118fe573d5f5f3e3d5ffd5b505050506040513d601f19601f820116820180604052508101906119229190613ff6565b506001830154600384015460048501549293505f926119469260ff16919085612f65565b90505f61195784600201548361352d565b90505f6127106119696101f48461402c565b6119739190614057565b90505f61198082846140c5565b600187015460038801549192506001600160a01b037f00000000000000000000000000000000000000000000000000000000000000001691630174d8aa9160ff16906119cb906140eb565b6040516001600160e01b031960e085901b168152911515600483015260248201526044015f604051808303815f87803b158015611a06575f5ffd5b505af1158015611a18573d5f5f3e3d5ffd5b50505050611a268888613539565b6001600160a01b0388165f9081526004602081815260408084208b8552909152822082815560018101805460ff19169055600281018390556003810183905590810182905560058101829055600601558215611c16575f612710611a8b83606461402c565b611a959190614057565b90508015611ac1578060085f828254611aae91906140d8565b90915550611abe905081836140c5565b91505b8215611afb57611afb6001600160a01b037f000000000000000000000000000000000000000000000000000000000000000016338561306f565b8115611bcb57611b556001600160a01b037f0000000000000000000000000000000000000000000000000000000000000000167f00000000000000000000000000000000000000000000000000000000000000008461306f565b604051634b5f174d60e01b8152600481018390527f00000000000000000000000000000000000000000000000000000000000000006001600160a01b031690634b5f174d906024015f604051808303815f87803b158015611bb4575f5ffd5b505af1158015611bc6573d5f5f3e3d5ffd5b505050505b5f5160206141f45f395f51905f5281604051611c0c918152604060208201819052600b908201526a3634b8bab4b230ba34b7b760a91b606082015260800190565b60405180910390a1505b855460408051898152602081018690526001600160a01b038b16917fe79e2428aef02bb7da2accbb1315d7dd70abef0e3b097e3e774fe826f1c325ad910160405180910390a3505050505050610f9e60015f5160206142145f395f51905f5255565b6005602052815f5260405f208181548110611c91575f80fd5b905f5260205f20015f91509150505481565b611cab613347565b611478613654565b611cbb612b22565b611cc3612b3d565b335f90815260046020818152604080842085855290915290912090810154611cfd5760405162461bcd60e51b81526004016106f190613faf565b611d073383612b67565b80546040516376a25ac560e11b81525f916001600160a01b037f0000000000000000000000000000000000000000000000000000000000000000169163ed44b58a91611d599160040190815260200190565b6040805180830381865afa158015611d73573d5f5f3e3d5ffd5b505050506040513d601f19601f82011682018060405250810190611d979190613ff6565b506001830154600384015460048501549293505f92611dbb9260ff16919085612f65565b90505f611dcc846002015483613008565b90505f611ddb82600154613050565b90505f83126120c357600285015483905f90611df89083906140d8565b90505f838210611e1357611e0c84836140c5565b9050611e19565b509150815f5b6002880154335f9081526003602052604081208054909190611e3c9084906140d8565b90915550506002880154600780545f90611e579084906140d8565b90915550508315612039575f88600201548511611e745784611e7a565b88600201545b90505f611e8782876140c5565b90508115611f9557335f9081526003602052604081208054849290611ead9084906140c5565b925050819055508160075f828254611ec591906140c5565b90915550611f1f90506001600160a01b037f0000000000000000000000000000000000000000000000000000000000000000167f00000000000000000000000000000000000000000000000000000000000000008461306f565b604051634d0dd0e160e01b8152600481018390527f00000000000000000000000000000000000000000000000000000000000000006001600160a01b031690634d0dd0e1906024015f604051808303815f87803b158015611f7e575f5ffd5b505af1158015611f90573d5f5f3e3d5ffd5b505050505b5f818611611fa3575f611fad565b611fad82876140c5565b9050801561203157604051634b12d9e960e11b8152336004820152602481018290527f00000000000000000000000000000000000000000000000000000000000000006001600160a01b031690639625b3d2906044015f604051808303815f87803b15801561201a575f5ffd5b505af115801561202c573d5f5f3e3d5ffd5b505050505b5050506120bb565b82156120bb57604051634b12d9e960e11b8152336004820152602481018490527f00000000000000000000000000000000000000000000000000000000000000006001600160a01b031690639625b3d2906044015f604051808303815f87803b1580156120a4575f5ffd5b505af11580156120b6573d5f5f3e3d5ffd5b505050505b5050506123c7565b5f6120cd846140eb565b90505f866002015482116120e157816120e7565b86600201545b905080156121b9576121436001600160a01b037f0000000000000000000000000000000000000000000000000000000000000000167f00000000000000000000000000000000000000000000000000000000000000008361306f565b604051634b5f174d60e01b8152600481018290527f00000000000000000000000000000000000000000000000000000000000000006001600160a01b031690634b5f174d906024015f604051808303815f87803b1580156121a2575f5ffd5b505af11580156121b4573d5f5f3e3d5ffd5b505050505b5f8188600201546121ca91906140c5565b90505f8482106122ed576121de85836140c5565b335f908152600360205260408120805492935083929091906122019084906140d8565b925050819055508060075f82825461221991906140d8565b9091555061227390506001600160a01b037f0000000000000000000000000000000000000000000000000000000000000000167f00000000000000000000000000000000000000000000000000000000000000008761306f565b604051634d0dd0e160e01b8152600481018690527f00000000000000000000000000000000000000000000000000000000000000006001600160a01b031690634d0dd0e1906024015f604051808303815f87803b1580156122d2575f5ffd5b505af11580156122e4573d5f5f3e3d5ffd5b505050506123c2565b505f81156123c2576123496001600160a01b037f0000000000000000000000000000000000000000000000000000000000000000167f00000000000000000000000000000000000000000000000000000000000000008461306f565b604051634d0dd0e160e01b8152600481018390527f00000000000000000000000000000000000000000000000000000000000000006001600160a01b031690634d0dd0e1906024015f604051808303815f87803b1580156123a8575f5ffd5b505af11580156123ba573d5f5f3e3d5ffd5b505050508194505b505050505b8060085f8282546123d891906140d8565b9091555050600185015460038601546001600160a01b037f00000000000000000000000000000000000000000000000000000000000000001691630174d8aa9160ff90911690612427906140eb565b6040516001600160e01b031960e085901b168152911515600483015260248201526044015f604051808303815f87803b158015612462575f5ffd5b505af1158015612474573d5f5f3e3d5ffd5b505050506124823387613539565b335f8181526004602081815260408084208b855282528084208481556001808201805460ff1916905560028083018790556003808401889055838701889055600584018890556006909301969096558b54908c0154958c0154918c0154948c015483518e815260ff909716151594870194909452918501526060840192909252608083015260a0820187905260c0820186905291907f76b9a7e75807004f273ff780b5e1dd36b1cd5214b59e88cfd3574c99cc6547e79060e00160405180910390a35f5160206141f45f395f51905f528160405161257f91815260406020820181905260059082015264636c6f736560d81b606082015260800190565b60405180910390a150505050506113b060015f5160206142145f395f51905f5255565b5f6125ab612b22565b6125b3612b3d565b6125be83835f613696565b905061115f60015f5160206142145f395f51905f5255565b6125de613347565b6101f48111156126305760405162461bcd60e51b815260206004820152601c60248201527f436f756e74727954726164696e673a2046656520746f6f20686967680000000060448201526064016106f1565b60015460408051918252602082018390527f048ced0cbfd080780177282231c1bcf4b2e117ba3c76f5081b3dbab6dc6e1e1b910160405180910390a1600155565b6001600160a01b0382165f9081526004602081815260408084208585528252808420815160e08101835281548152600182015460ff16151593810193909352600281015491830191909152600381015460608301529182015460808201819052600583015460a083015260069092015460c08201529082036126f6575f91505061115f565b80516040516376a25ac560e11b81525f916001600160a01b037f0000000000000000000000000000000000000000000000000000000000000000169163ed44b58a916127489160040190815260200190565b6040805180830381865afa158015612762573d5f5f3e3d5ffd5b505050506040513d601f19601f820116820180604052508101906127869190613ff6565b5090505f6127a283602001518460600151856080015185612f65565b9050611159836040015182600254613c18565b6127bd612b22565b6127c5612b3d565b5f81116127e45760405162461bcd60e51b81526004016106f190614105565b6128196001600160a01b037f0000000000000000000000000000000000000000000000000000000000000000163330846134a8565b335f90815260036020526040812080548392906128379084906140d8565b925050819055508060075f82825461284f91906140d8565b909155505060405181815233907fe1fffcc4923d04b559f4d29a8bfc6cda04eb5b0d3c460751c2402c5c5cc9109c90602001611392565b5f61288f612b22565b612897612b3d565b6125be83836001613696565b6128ab613347565b6113888110156129075760405162461bcd60e51b815260206004820152602160248201527f436f756e74727954726164696e673a205468726573686f6c6420746f6f206c6f6044820152607760f81b60648201526084016106f1565b61251c8111156129645760405162461bcd60e51b815260206004820152602260248201527f436f756e74727954726164696e673a205468726573686f6c6420746f6f2068696044820152610ced60f31b60648201526084016106f1565b60025460408051918252602082018390527fcdadd717dc9ee3550a289071d1af75e229726888d51e3a31c9e3dfc693d4852b910160405180910390a1600255565b6129ad613347565b6001600160a01b0381166129d657604051631e4fbdf760e01b81525f60048201526024016106f1565b6113b0816134de565b6001600160a01b0382165f9081526004602081815260408084208585528252808420815160e08101835281548152600182015460ff16151593810193909352600281015491830191909152600381015460608301529182015460808201819052600583015460a083015260069092015460c08201528291612a725760405162461bcd60e51b81526004016106f190613faf565b80516040516376a25ac560e11b815260048101919091527f00000000000000000000000000000000000000000000000000000000000000006001600160a01b03169063ed44b58a906024016040805180830381865afa158015612ad7573d5f5f3e3d5ffd5b505050506040513d601f19601f82011682018060405250810190612afb9190613ff6565b5080925050612b1881602001518260600151836080015185612f65565b9250509250929050565b612b2a613c4a565b60025f5160206142145f395f51905f5255565b5f54600160a01b900460ff16156114785760405163d93c066560e01b815260040160405180910390fd5b6001600160a01b0382165f90815260046020908152604080832084845290915281206006810154909190612b9a90613c79565b50905080612ba85750505050565b5f5f7f00000000000000000000000000000000000000000000000000000000000000006001600160a01b0316631866509f6040518163ffffffff1660e01b8152600401606060405180830381865afa158015612c06573d5f5f3e3d5ffd5b505050506040513d601f19601f82011682018060405250810190612c2a9190614169565b92509250505f612c3a83836133c7565b90508015612f5357600385015460018601545f91612c5c91849060ff16613ca5565b90505f811315612ebb576001600160a01b0388165f9081526003602052604090205481908111612d99576001600160a01b0389165f9081526003602052604081208054839290612cad9084906140c5565b925050819055508060075f828254612cc591906140c5565b90915550612d1f90506001600160a01b037f0000000000000000000000000000000000000000000000000000000000000000167f00000000000000000000000000000000000000000000000000000000000000008361306f565b60405163b6176edb60e01b8152600481018290527f00000000000000000000000000000000000000000000000000000000000000006001600160a01b03169063b6176edb906024015f604051808303815f87803b158015612d7e575f5ffd5b505af1158015612d90573d5f5f3e3d5ffd5b50505050612eb5565b6001600160a01b0389165f908152600360205260409020548015612eb3576001600160a01b038a165f90815260036020526040812081905560078054839290612de39084906140c5565b90915550612e3d90506001600160a01b037f0000000000000000000000000000000000000000000000000000000000000000167f00000000000000000000000000000000000000000000000000000000000000008361306f565b60405163b6176edb60e01b8152600481018290527f00000000000000000000000000000000000000000000000000000000000000006001600160a01b03169063b6176edb906024015f604051808303815f87803b158015612e9c575f5ffd5b505af1158015612eae573d5f5f3e3d5ffd5b505050505b505b50612f51565b5f811215612f51575f612ecd826140eb565b604051634b12d9e960e11b81526001600160a01b038b81166004830152602482018390529192507f000000000000000000000000000000000000000000000000000000000000000090911690639625b3d2906044015f604051808303815f87803b158015612f39575f5ffd5b505af1158015612f4b573d5f5f3e3d5ffd5b50505050505b505b42856006018190555050505050505050565b5f8415612fc25782821115612f9a5782612f7f81846140c5565b612f89908661402c565b612f939190614057565b9050613000565b82612fa583826140c5565b612faf908661402c565b612fb99190614057565b612f93906140eb565b82821015612fd55782612f7f83826140c5565b82612fe081846140c5565b612fea908661402c565b612ff49190614057565b612ffd906140eb565b90505b949350505050565b5f5f82126130215761301a82846140d8565b905061115f565b5f61302b836140eb565b905083811061303c575f9150613049565b61304681856140c5565b91505b5092915050565b5f61271061305e838561402c565b6130689190614057565b9392505050565b61307c8383836001613cf8565b6130a457604051635274afe760e01b81526001600160a01b03841660048201526024016106f1565b505050565b6001600160a01b0382165f9081526005602090815260408083208054825181850281018501909352808352919290919083018282801561310657602002820191905f5260205f20905b8154815260200190600101908083116130f2575b509394505f93505050505b8151811015613341575f82828151811061312d5761312d614194565b6020908102919091018101516001600160a01b0387165f908152600480845260408083208484528552808320815160e08101835281548152600182015460ff16151596810196909652600281015491860191909152600381015460608601529081015460808501819052600582015460a086015260069091015460c0850152919350036131bb575050613339565b80516040516376a25ac560e11b81525f916001600160a01b037f0000000000000000000000000000000000000000000000000000000000000000169163ed44b58a9161320d9160040190815260200190565b6040805180830381865afa158015613227573d5f5f3e3d5ffd5b505050506040513d601f19601f8201168201806040525081019061324b9190613ff6565b5090505f61326783602001518460600151856080015185612f65565b90505f613278846040015183613008565b90505f8460400151821161328c5781613292565b84604001515b6001600160a01b038b165f90815260036020526040812054919250906132b9908b906140c5565b9050818110156133315760405162461bcd60e51b815260206004820152603d60248201527f436f756e74727954726164696e673a205769746864726177616c20776f756c6460448201527f20636175736520756e646572636f6c6c61746572616c697a6174696f6e00000060648201526084016106f1565b505050505050505b600101613111565b50505050565b5f546001600160a01b031633146114785760405163118cdaa760e01b81523360048201526024016106f1565b61337b613d5a565b5f805460ff60a01b191690557f5db9ee0a495bf2e6ff9c91a7834c1ba4fdd244a5e8aa4e537bd38aeae4b073aa335b6040516001600160a01b03909116815260200160405180910390a1565b5f821580156133d4575081155b156133e057505f61115f565b5f6133eb83856140d8565b90505f8385111561341f578161271061340486886140c5565b61340e919061402c565b6134189190614057565b905061344d565b8161271061342d87876140c5565b613437919061402c565b6134419190614057565b61344a906140eb565b90505b5f61271061345c60648461406a565b6134669190614099565b905060648082131561347a5780945061349e565b613483816140eb565b82121561349a57613493816140eb565b945061349e565b8194505b5050505092915050565b6134b6848484846001613d83565b61334157604051635274afe760e01b81526001600160a01b03851660048201526024016106f1565b5f80546001600160a01b038381166001600160a01b0319831681178455604051919092169283917f8be0079c531659141344cd1fd0a4f28419497f9722a3daafe3b4186f6b6457e09190a35050565b5f5f6130008484613008565b6001600160a01b0382165f908152600560205260408120805490915b818110156135f3578383828154811061357057613570614194565b905f5260205f200154036135eb578261358a6001846140c5565b8154811061359a5761359a614194565b905f5260205f2001548382815481106135b5576135b5614194565b905f5260205f200181905550828054806135d1576135d16141a8565b600190038181905f5260205f20015f905590555050505050565b600101613555565b5060405162461bcd60e51b815260206004820152602f60248201527f436f756e74727954726164696e673a20506f736974696f6e206e6f7420666f7560448201526e1b99081a5b881d5cd95c881b1a5cdd608a1b60648201526084016106f1565b61365c612b3d565b5f805460ff60a01b1916600160a01b1790557f62e78cea01bee320cd4e420270b5ea74000d11b0c9f74754ebdbfc544b05a2586133aa3390565b5f670de0b6b3a76400008310156136fa5760405162461bcd60e51b815260206004820152602260248201527f436f756e74727954726164696e673a20506f736974696f6e20746f6f20736d616044820152611b1b60f21b60648201526084016106f1565b69d3c21bcecceda100000083111561375f5760405162461bcd60e51b815260206004820152602260248201527f436f756e74727954726164696e673a20506f736974696f6e20746f6f206c6172604482015261676560f01b60648201526084016106f1565b604051636bf71ea360e11b8152600481018590527f00000000000000000000000000000000000000000000000000000000000000006001600160a01b03169063d7ee3d4690602401602060405180830381865afa1580156137c2573d5f5f3e3d5ffd5b505050506040513d601f19601f820116820180604052508101906137e691906141bc565b61383d5760405162461bcd60e51b815260206004820152602260248201527f436f756e74727954726164696e673a20436f756e747279206e6f742061637469604482015261766560f01b60648201526084016106f1565b335f908152600560205260409020546064116138a95760405162461bcd60e51b815260206004820152602560248201527f436f756e74727954726164696e673a204d617820706f736974696f6e732072656044820152641858da195960da1b60648201526084016106f1565b6040516376a25ac560e11b8152600481018590525f907f00000000000000000000000000000000000000000000000000000000000000006001600160a01b03169063ed44b58a906024016040805180830381865afa15801561390d573d5f5f3e3d5ffd5b505050506040513d601f19601f820116820180604052508101906139319190613ff6565b5090505f8490505f61394582600154613050565b905061395181876140d8565b335f9081526003602052604090205410156139be5760405162461bcd60e51b815260206004820152602760248201527f436f756e74727954726164696e673a20496e73756666696369656e7420636f6c6044820152661b185d195c985b60ca1b60648201526084016106f1565b6139c881876140d8565b335f90815260036020526040812080549091906139e69084906140c5565b909155506139f6905081876140d8565b60075f828254613a0691906140c5565b90915550613a6090506001600160a01b037f0000000000000000000000000000000000000000000000000000000000000000167f00000000000000000000000000000000000000000000000000000000000000008361306f565b604051634d0dd0e160e01b8152600481018290527f00000000000000000000000000000000000000000000000000000000000000006001600160a01b031690634d0dd0e1906024015f604051808303815f87803b158015613abf575f5ffd5b505af1158015613ad1573d5f5f3e3d5ffd5b505050508060085f828254613ae691906140d8565b909155505060405162ba6c5560e11b81528515156004820152602481018390527f00000000000000000000000000000000000000000000000000000000000000006001600160a01b031690630174d8aa906044015f604051808303815f87803b158015613b51575f5ffd5b505af1158015613b63573d5f5f3e3d5ffd5b50505050613b75338887898688613df0565b6040805182815287151560208201529081018890526060810184905260808101859052909450879033907fd18e60f8b6f446ef54e84bdbd8af2c98e918e2f252f80bf9d4eebf043a3d30c79060a00160405180910390a35f5160206141f45f395f51905f5281604051613c069181526040602082018190526004908201526337b832b760e11b606082015260800190565b60405180910390a15050509392505050565b5f5f613c248585613008565b90505f612710613c34858861402c565b613c3e9190614057565b90911095945050505050565b5f5160206142145f395f51905f525460020361147857604051633ee5aeb560e01b815260040160405180910390fd5b5f5f825f03613c8c57505f928392509050565b613c9683426140c5565b90506170808110159150915091565b5f825f03613cb457505f613068565b8115613cd857612710613cc7848661406a565b613cd19190614099565b9050613068565b612710613ce5848661406a565b613cee906140eb565b6130009190614099565b60405163a9059cbb60e01b5f8181526001600160a01b038616600452602485905291602083604481808b5af1925060015f51148316613d4e578383151615613d42573d5f823e3d81fd5b5f873b113d1516831692505b60405250949350505050565b5f54600160a01b900460ff1661147857604051638dfc202b60e01b815260040160405180910390fd5b6040516323b872dd60e01b5f8181526001600160a01b038781166004528616602452604485905291602083606481808c5af1925060015f51148316613ddf578383151615613dd3573d5f823e3d81fd5b5f883b113d1516831692505b604052505f60605295945050505050565b6001600160a01b0386165f90815260066020526040812080549082613e14836141db565b909155506040805160e081018252978852951515602080890191825288880196875260608901958652608089019485524260a08a0181815260c08b019182526001600160a01b039b909b165f81815260048085528b822087835285528b82209c518d5594516001808e01805460ff191692151592909217909155995160028d0155975160038c01559551928a019290925598516005808a019190915590516006909801979097559183525093855291822080549182018155825292902090910181905590565b80356001600160a01b0381168114613ef0575f5ffd5b919050565b5f60208284031215613f05575f5ffd5b61306882613eda565b5f5f60408385031215613f1f575f5ffd5b50508035926020909101359150565b602080825282518282018190525f918401906040840190835b81811015613f65578351835260209384019390920191600101613f47565b509095945050505050565b5f5f60408385031215613f81575f5ffd5b613f8a83613eda565b946020939093013593505050565b5f60208284031215613fa8575f5ffd5b5035919050565b60208082526027908201527f436f756e74727954726164696e673a20506f736974696f6e20646f6573206e6f6040820152661d08195e1a5cdd60ca1b606082015260800190565b5f5f60408385031215614007575f5ffd5b505080516020909101519092909150565b634e487b7160e01b5f52601160045260245ffd5b808202811582820484141761115f5761115f614018565b634e487b7160e01b5f52601260045260245ffd5b5f8261406557614065614043565b500490565b8082025f8212600160ff1b8414161561408557614085614018565b818105831482151761115f5761115f614018565b5f826140a7576140a7614043565b600160ff1b82145f19841416156140c0576140c0614018565b500590565b8181038181111561115f5761115f614018565b8082018082111561115f5761115f614018565b5f600160ff1b82016140ff576140ff614018565b505f0390565b6020808252602d908201527f436f756e74727954726164696e673a20416d6f756e74206d757374206265206760408201526c0726561746572207468616e203609c1b606082015260800190565b5f60208284031215614162575f5ffd5b5051919050565b5f5f5f6060848603121561417b575f5ffd5b5050815160208301516040909301519094929350919050565b634e487b7160e01b5f52603260045260245ffd5b634e487b7160e01b5f52603160045260245ffd5b5f602082840312156141cc575f5ffd5b81518015158114613068575f5ffd5b5f600182016141ec576141ec614018565b506001019056fe1db7941b653306a47954f2795702e8286a9149d5b3846ab5d061b3b130dbb0f99b779b17422d0df92223018b32b4d1fa46e071723d6817e2486d003becc55f00a26469706673582212202aa3f45235e5fa1817bea6ae8b239db087ca3f637ce8266f5d3add887c2ab65164736f6c634300081e0033","linkReferences":{}},"methodIdentifiers":{"LEVERAGE()":"8d01f0ba","LIQUIDATOR_BONUS_BPS()":"d834deb5","MAX_POSITIONS_PER_USER()":"2fcb3058","MAX_POSITION_SIZE()":"5ec1215f","MIN_POSITION_SIZE()":"368dbba8","canLiquidate(address,uint256)":"b39ff736","closePosition(uint256)":"a126d601","closePositionPartial(uint256,uint256)":"05116575","collateralBalances(address)":"29bc969d","collateralToken()":"b2016bd4","countryRegistry()":"1ad393b8","deposit(uint256)":"b6b55f25","getCollateralBalance(address)":"2703ee85","getCurrentFundingRate()":"4469fc9d","getPosition(address,uint256)":"3adbb5af","getPositionPnL(address,uint256)":"fcb69724","getPositionValue(address,uint256)":"2c51060f","getProtocolMetrics()":"eb1d13b0","getUserPositionCount(address)":"31e8a7ef","getUserPositions(address)":"2a6bc2dd","increaseCollateral(uint256,uint256)":"54f0cb0d","liquidatePosition(address,uint256)":"76f89965","liquidationThresholdBps()":"e4864731","liquidityPool()":"665a11ca","nextPositionId(address)":"036ae354","openLongPosition(bytes32,uint256)":"bc6f8976","openShortPosition(bytes32,uint256)":"ab40e1cf","owner()":"8da5cb5b","pause()":"8456cb59","paused()":"5c975abb","positions(address,uint256)":"c1be6677","protocolFees()":"1ad8b03b","renounceOwnership()":"715018a6","setLiquidationThreshold(uint256)":"d0b0c816","setTradingFee(uint256)":"b0d54bcf","totalCollateral()":"4ac8eb5f","tradingFeeBps()":"924cca9a","transferOwnership(address)":"f2fde38b","unpause()":"3f4ba83a","userPositionIds(address,uint256)":"7b6eb9b6","withdraw(uint256)":"2e1a7d4d","withdrawProtocolFees(uint256)":"4f449138"},"id":29}