{"abi":[{"type":"constructor","inputs":[{"name":"_collateralToken","type":"address","internalType":"address"}],"stateMutability":"nonpayable"},{"type":"function","name":"collateralToken","inputs":[],"outputs":[{"name":"","type":"address","internalType":"contract IERC20"}],"stateMutability":"view"},{"type":"function","name":"deposit","inputs":[{"name":"amount","type":"uint256","internalType":"uint256"}],"outputs":[],"stateMutability":"nonpayable"},{"type":"function","name":"getPoolMetrics","inputs":[],"outputs":[{"name":"poolBalance_","type":"uint256","internalType":"uint256"},{"name":"longOI","type":"uint256","internalType":"uint256"},{"name":"shortOI","type":"uint256","internalType":"uint256"}],"stateMutability":"view"},{"type":"function","name":"owner","inputs":[],"outputs":[{"name":"","type":"address","internalType":"address"}],"stateMutability":"view"},{"type":"function","name":"pause","inputs":[],"outputs":[],"stateMutability":"nonpayable"},{"type":"function","name":"paused","inputs":[],"outputs":[{"name":"","type":"bool","internalType":"bool"}],"stateMutability":"view"},{"type":"function","name":"payProfit","inputs":[{"name":"trader","type":"address","internalType":"address"},{"name":"amount","type":"uint256","internalType":"uint256"}],"outputs":[],"stateMutability":"nonpayable"},{"type":"function","name":"poolBalance","inputs":[],"outputs":[{"name":"","type":"uint256","internalType":"uint256"}],"stateMutability":"view"},{"type":"function","name":"receiveFundingFee","inputs":[{"name":"amount","type":"uint256","internalType":"uint256"}],"outputs":[],"stateMutability":"nonpayable"},{"type":"function","name":"receiveLoss","inputs":[{"name":"amount","type":"uint256","internalType":"uint256"}],"outputs":[],"stateMutability":"nonpayable"},{"type":"function","name":"receiveTradingFee","inputs":[{"name":"amount","type":"uint256","internalType":"uint256"}],"outputs":[],"stateMutability":"nonpayable"},{"type":"function","name":"renounceOwnership","inputs":[],"outputs":[],"stateMutability":"nonpayable"},{"type":"function","name":"setTradingContract","inputs":[{"name":"_tradingContract","type":"address","internalType":"address"}],"outputs":[],"stateMutability":"nonpayable"},{"type":"function","name":"totalLongOpenInterest","inputs":[],"outputs":[{"name":"","type":"uint256","internalType":"uint256"}],"stateMutability":"view"},{"type":"function","name":"totalShortOpenInterest","inputs":[],"outputs":[{"name":"","type":"uint256","internalType":"uint256"}],"stateMutability":"view"},{"type":"function","name":"tradingContract","inputs":[],"outputs":[{"name":"","type":"address","internalType":"address"}],"stateMutability":"view"},{"type":"function","name":"transferOwnership","inputs":[{"name":"newOwner","type":"address","internalType":"address"}],"outputs":[],"stateMutability":"nonpayable"},{"type":"function","name":"unpause","inputs":[],"outputs":[],"stateMutability":"nonpayable"},{"type":"function","name":"updateOpenInterest","inputs":[{"name":"isLong","type":"bool","internalType":"bool"},{"name":"amount","type":"int256","internalType":"int256"}],"outputs":[],"stateMutability":"nonpayable"},{"type":"function","name":"withdraw","inputs":[{"name":"amount","type":"uint256","internalType":"uint256"}],"outputs":[],"stateMutability":"nonpayable"},{"type":"event","name":"FundingFeeReceived","inputs":[{"name":"amount","type":"uint256","indexed":false,"internalType":"uint256"}],"anonymous":false},{"type":"event","name":"LossReceived","inputs":[{"name":"amount","type":"uint256","indexed":false,"internalType":"uint256"}],"anonymous":false},{"type":"event","name":"OwnershipTransferred","inputs":[{"name":"previousOwner","type":"address","indexed":true,"internalType":"address"},{"name":"newOwner","type":"address","indexed":true,"internalType":"address"}],"anonymous":false},{"type":"event","name":"Paused","inputs":[{"name":"account","type":"address","indexed":false,"internalType":"address"}],"anonymous":false},{"type":"event","name":"PoolDeposit","inputs":[{"name":"provider","type":"address","indexed":true,"internalType":"address"},{"name":"amount","type":"uint256","indexed":false,"internalType":"uint256"}],"anonymous":false},{"type":"event","name":"PoolWithdraw","inputs":[{"name":"provider","type":"address","indexed":true,"internalType":"address"},{"name":"amount","type":"uint256","indexed":false,"internalType":"uint256"}],"anonymous":false},{"type":"event","name":"ProfitPaid","inputs":[{"name":"trader","type":"address","indexed":true,"internalType":"address"},{"name":"amount","type":"uint256","indexed":false,"internalType":"uint256"}],"anonymous":false},{"type":"event","name":"TradingFeeReceived","inputs":[{"name":"amount","type":"uint256","indexed":false,"internalType":"uint256"}],"anonymous":false},{"type":"event","name":"Unpaused","inputs":[{"name":"account","type":"address","indexed":false,"internalType":"address"}],"anonymous":false},{"type":"error","name":"EnforcedPause","inputs":[]},{"type":"error","name":"ExpectedPause","inputs":[]},{"type":"error","name":"OwnableInvalidOwner","inputs":[{"name":"owner","type":"address","internalType":"address"}]},{"type":"error","name":"OwnableUnauthorizedAccount","inputs":[{"name":"account","type":"address","internalType":"address"}]},{"type":"error","name":"ReentrancyGuardReentrantCall","inputs":[]},{"type":"error","name":"SafeERC20FailedOperation","inputs":[{"name":"token","type":"address","internalType":"address"}]}],"bytecode":{"object":"0x60a060405234801561000f575f5ffd5b50604051610fbb380380610fbb83398101604081905261002e91610138565b60017f9b779b17422d0df92223018b32b4d1fa46e071723d6817e2486d003becc55f0055338061007857604051631e4fbdf760e01b81525f60048201526024015b60405180910390fd5b610081816100e9565b506001600160a01b0381166100d85760405162461bcd60e51b815260206004820152601c60248201527f4c6971756964697479506f6f6c3a20496e76616c696420746f6b656e00000000604482015260640161006f565b6001600160a01b0316608052610165565b5f80546001600160a01b038381166001600160a01b0319831681178455604051919092169283917f8be0079c531659141344cd1fd0a4f28419497f9722a3daafe3b4186f6b6457e09190a35050565b5f60208284031215610148575f5ffd5b81516001600160a01b038116811461015e575f5ffd5b9392505050565b608051610e296101925f395f8181610258015281816103f60152818161074401526108640152610e295ff3fe608060405234801561000f575f5ffd5b5060043610610127575f3560e01c80638456cb59116100a9578063b2016bd41161006e578063b2016bd414610253578063b6176edb1461027a578063b6b55f251461028d578063b7707ede146102a0578063f2fde38b146102a9575f5ffd5b80638456cb59146101f85780638da5cb5b146102005780639625b3d21461022457806396365d44146102375780639e4bd2e914610240575f5ffd5b80634d0dd0e1116100ef5780634d0dd0e1146101975780635be6f2c7146101aa5780635c975abb146101bd578063715018a6146101d957806373378d98146101e1575f5ffd5b80630174d8aa1461012b5780631866509f146101405780632e1a7d4d146101695780633f4ba83a1461017c5780634b5f174d14610184575b5f5ffd5b61013e610139366004610c27565b6102bc565b005b600154600354600454604080519384526020840192909252908201526060015b60405180910390f35b61013e610177366004610c55565b61036e565b61013e610496565b61013e610192366004610c55565b6104a8565b61013e6101a5366004610c55565b61056e565b61013e6101b8366004610c87565b6105e4565b5f54600160a01b900460ff166040519015158152602001610160565b61013e610664565b6101ea60045481565b604051908152602001610160565b61013e610675565b5f546001600160a01b03165b6040516001600160a01b039091168152602001610160565b61013e610232366004610ca7565b610685565b6101ea60015481565b60025461020c906001600160a01b031681565b61020c7f000000000000000000000000000000000000000000000000000000000000000081565b61013e610288366004610c55565b6107b2565b61013e61029b366004610c55565b610828565b6101ea60035481565b61013e6102b7366004610c87565b6108d4565b6002546001600160a01b031633146102ef5760405162461bcd60e51b81526004016102e690610cc1565b60405180910390fd5b8115610332575f811315610319578060035f82825461030e9190610d19565b9091555061036a9050565b61032281610d32565b60035f82825461030e9190610d4c565b5f81131561034b578060045f82825461030e9190610d19565b61035481610d32565b60045f8282546103649190610d4c565b90915550505b5050565b61037661090e565b61037e61093a565b610386610968565b5f81116103a55760405162461bcd60e51b81526004016102e690610d5f565b8060015410156103c75760405162461bcd60e51b81526004016102e690610dab565b8060015f8282546103d89190610d4c565b90915550505f5461041d906001600160a01b03166001600160a01b037f0000000000000000000000000000000000000000000000000000000000000000169083610992565b5f546001600160a01b03166001600160a01b03167f61a0b4d879cd5e5653631acae542581573d52905e66efcbb6246efca1ef306d68260405161046291815260200190565b60405180910390a261049360017f9b779b17422d0df92223018b32b4d1fa46e071723d6817e2486d003becc55f0055565b50565b61049e61090e565b6104a66109cc565b565b6002546001600160a01b031633146104d25760405162461bcd60e51b81526004016102e690610cc1565b5f81116105215760405162461bcd60e51b815260206004820152601d60248201527f4c6971756964697479506f6f6c3a20496e76616c696420616d6f756e7400000060448201526064016102e6565b8060015f8282546105329190610d19565b90915550506040518181527fb9d1f9f0753f838e4f25ea26003ddc73a103a46ebd1254c67d7f5fe60a92685d906020015b60405180910390a150565b6002546001600160a01b031633146105985760405162461bcd60e51b81526004016102e690610cc1565b8015610493578060015f8282546105af9190610d19565b90915550506040518181527f53bb31aa3c20b8a3c0cc2e730ae0fe06bbe9f0e978cb67b4396c81f9d546174b90602001610563565b6105ec61090e565b6001600160a01b0381166106425760405162461bcd60e51b815260206004820152601e60248201527f4c6971756964697479506f6f6c3a20496e76616c69642061646472657373000060448201526064016102e6565b600280546001600160a01b0319166001600160a01b0392909216919091179055565b61066c61090e565b6104a65f610a20565b61067d61090e565b6104a6610a6f565b6002546001600160a01b031633146106af5760405162461bcd60e51b81526004016102e690610cc1565b5f81116106fe5760405162461bcd60e51b815260206004820152601d60248201527f4c6971756964697479506f6f6c3a20496e76616c696420616d6f756e7400000060448201526064016102e6565b8060015410156107205760405162461bcd60e51b81526004016102e690610dab565b8060015f8282546107319190610d4c565b9091555061076b90506001600160a01b037f0000000000000000000000000000000000000000000000000000000000000000168383610992565b816001600160a01b03167f18b4d88519e317cd323e73f9cb4143659b157408d6c68da2a8e309e0c7155b34826040516107a691815260200190565b60405180910390a25050565b6002546001600160a01b031633146107dc5760405162461bcd60e51b81526004016102e690610cc1565b8015610493578060015f8282546107f39190610d19565b90915550506040518181527f1650549deee04ba02afa7643baffd56427e1718df1fee5ef1f8a41354b71514390602001610563565b61083061093a565b610838610968565b5f81116108575760405162461bcd60e51b81526004016102e690610d5f565b61088c6001600160a01b037f000000000000000000000000000000000000000000000000000000000000000016333084610ab1565b8060015f82825461089d9190610d19565b909155505060405181815233907fea74918ad47929fae6a873ab3425581f01a3cd9c602bd9ed21348414c2c8bc1190602001610462565b6108dc61090e565b6001600160a01b03811661090557604051631e4fbdf760e01b81525f60048201526024016102e6565b61049381610a20565b5f546001600160a01b031633146104a65760405163118cdaa760e01b81523360048201526024016102e6565b610942610aed565b60027f9b779b17422d0df92223018b32b4d1fa46e071723d6817e2486d003becc55f0055565b5f54600160a01b900460ff16156104a65760405163d93c066560e01b815260040160405180910390fd5b61099f8383836001610b2f565b6109c757604051635274afe760e01b81526001600160a01b03841660048201526024016102e6565b505050565b6109d4610b91565b5f805460ff60a01b191690557f5db9ee0a495bf2e6ff9c91a7834c1ba4fdd244a5e8aa4e537bd38aeae4b073aa335b6040516001600160a01b03909116815260200160405180910390a1565b5f80546001600160a01b038381166001600160a01b0319831681178455604051919092169283917f8be0079c531659141344cd1fd0a4f28419497f9722a3daafe3b4186f6b6457e09190a35050565b610a77610968565b5f805460ff60a01b1916600160a01b1790557f62e78cea01bee320cd4e420270b5ea74000d11b0c9f74754ebdbfc544b05a258610a033390565b610abf848484846001610bba565b610ae757604051635274afe760e01b81526001600160a01b03851660048201526024016102e6565b50505050565b7f9b779b17422d0df92223018b32b4d1fa46e071723d6817e2486d003becc55f00546002036104a657604051633ee5aeb560e01b815260040160405180910390fd5b60405163a9059cbb60e01b5f8181526001600160a01b038616600452602485905291602083604481808b5af1925060015f51148316610b85578383151615610b79573d5f823e3d81fd5b5f873b113d1516831692505b60405250949350505050565b5f54600160a01b900460ff166104a657604051638dfc202b60e01b815260040160405180910390fd5b6040516323b872dd60e01b5f8181526001600160a01b038781166004528616602452604485905291602083606481808c5af1925060015f51148316610c16578383151615610c0a573d5f823e3d81fd5b5f883b113d1516831692505b604052505f60605295945050505050565b5f5f60408385031215610c38575f5ffd5b82358015158114610c47575f5ffd5b946020939093013593505050565b5f60208284031215610c65575f5ffd5b5035919050565b80356001600160a01b0381168114610c82575f5ffd5b919050565b5f60208284031215610c97575f5ffd5b610ca082610c6c565b9392505050565b5f5f60408385031215610cb8575f5ffd5b610c4783610c6c565b60208082526024908201527f4c6971756964697479506f6f6c3a204f6e6c792074726164696e6720636f6e746040820152631c9858dd60e21b606082015260800190565b634e487b7160e01b5f52601160045260245ffd5b80820180821115610d2c57610d2c610d05565b92915050565b5f600160ff1b8201610d4657610d46610d05565b505f0390565b81810381811115610d2c57610d2c610d05565b6020808252602c908201527f4c6971756964697479506f6f6c3a20416d6f756e74206d75737420626520677260408201526b06561746572207468616e20360a41b606082015260800190565b60208082526028908201527f4c6971756964697479506f6f6c3a20496e73756666696369656e7420706f6f6c6040820152672062616c616e636560c01b60608201526080019056fea264697066735822122051dd0301d89d389e712f529217384741c43a26d5db0a909cbf11b4585ac5489864736f6c634300081e0033","linkReferences":{}},"methodIdentifiers":{"collateralToken()":"b2016bd4","deposit(uint256)":"b6b55f25","getPoolMetrics()":"1866509f","owner()":"8da5cb5b","pause()":"8456cb59","paused()":"5c975abb","payProfit(address,uint256)":"9625b3d2","poolBalance()":"96365d44","receiveFundingFee(uint256)":"b6176edb","receiveLoss(uint256)":"4b5f174d","receiveTradingFee(uint256)":"4d0dd0e1","renounceOwnership()":"715018a6","setTradingContract(address)":"5be6f2c7","totalLongOpenInterest()":"b7707ede","totalShortOpenInterest()":"73378d98","tradingContract()":"9e4bd2e9","transferOwnership(address)":"f2fde38b","unpause()":"3f4ba83a","updateOpenInterest(bool,int256)":"0174d8aa","withdraw(uint256)":"2e1a7d4d"},"id":30}